:020000040800F2
:100000000028002049160008390D00083F0D00089F
:10001000450D00084B0D0008510D000800000000C0
:10002000000000000000000000000000570D000864
:10003000630D0008000000006F0D00087B0D000834
:1000400091160008911600089116000891160008F4
:1000500091160008911600089116000891160008E4
:1000600091160008911600089116000891160008D4
:1000700091160008911600089116000891160008C4
:1000800091160008911600089116000891160008B4
:1000900091160008911600089116000891160008A4
:1000A0009116000891160008911600089116000894
:1000B000890D000891160008000000009116000844
:1000C00091160008000000000000000091160008D2
:1000D00000000000911600089116000800000000C2
:1000E0009116000891160008911600080000000003
:1000F0000000000000000000000000000000000000
:0C01000000000000000000005FF808F1A3
:10010C0010B5054C237833B9044B13B10448AFF345
:10011C0000800123237010BD380100200000000076
:10012C00E82C000808B5034B1BB103490348AFF397
:10013C00008008BD000000003C010020E82C0008F5
:10014C0080B400AF024B1B781846BD4680BC70478C
:10015C005701002080B582B000AF00237B6028E1FE
:10016C007B68022B00F0C4807B68022B00F31781A4
:10017C007B68002B03D07B68012B5CD00FE1914A8C
:10018C007B6813441B78022B43D0022B00F30981AC
:10019C00002B02D0012B24D003E1002000F096F9B3
:1001AC000346002B41D0874A7B68134401221A7006
:1001BC00854B1B780133DAB2834B1A70824B1B7858
:1001CC00052B32D101F0D4F900F0CEFF40F2F23021
:1001DC0000F0FEFD0A2000F0E1FD7B4B01221A70BD
:1001EC0023E0002000F072F90346002B05D1754A7C
:1001FC007B68134400221A7019E0002000F080F98B
:10020C000346002B13D06F4A7B68134402221A70EA
:10021C000DE0002000F05AF90346002B09D1694A81
:10022C007B68134400221A7003E000BFB9E000BFE2
:10023C00B7E000BFB5E0634A7B6813441B78022B20
:10024C0046D0022B00F3AF80002B02D0012B27D01D
:10025C00A9E0012000F03AF90346002B1CD0594AC2
:10026C007B68134401221A70574B1B78012B13D057
:10027C00554B1B78042B0CD0042B0FDC022B02D01B
:10028C00032B03D00AE001F00DF908E001F02CF982
:10029C0005E001F04BF902E000BF28E000BF26E0CA
:1002AC00012000F013F90346002B05D1454A7B6869
:1002BC00134400221A7017E0012000F021F90346C4
:1002CC00002B11D03F4A7B68134402221A700BE0BA
:1002DC00012000F0FBF80346002B07D1394A7B685C
:1002EC00134400221A7001E000BF5CE000BF5AE02A
:1002FC00344A7B6813441B78022B3ED0022B54DC0F
:10030C00002B02D0012B20D04FE0022000F0DEF8B1
:10031C000346002B3DD02B4A7B68134401221A70F4
:10032C00294B1B78012B34D0274B1B78052B30D055
:10033C0000F01AFF40F2F23000F04AFD0A2000F003
:10034C002DFD214B01221A7023E0022000F0BEF893
:10035C000346002B05D11B4A7B68134400221A70FC
:10036C0019E0022000F0CCF80346002B13D0154AFC
:10037C007B68134402221A700DE0022000F0A6F8EC
:10038C000346002B09D10F4A7B68134400221A70D4
:10039C0003E000BF09E000BF07E000BF05E000BFBD
:1003AC0004E000BF02E000BF00E000BF7B68013347
:1003BC007B607B68022B7FF7D3AE00BF00BF083792
:1003CC00BD4680BD540100205701002090B583B07C
:1003DC0000AF0023FB7165E0FA79FB793549895C44
:1003EC00354AD154FB79022B1CD0022B25DC002B77
:1003FC0002D0012B0BD020E0FC794FF400612F4888
:10040C0001F02CFC03461A462A4B1A5516E0FC79CF
:10041C004FF48051294801F021FC03461A46254B24
:10042C001A550BE0FC794FF40051244801F016FCEE
:10043C0003461A461F4B1A5500E000BFFB791D4AB4
:10044C00D25CFB791C49CB5C9A4205D1FA79FB79D9
:10045C001849895C1A4AD154FB79194AD35C002B90
:10046C0014D1FB79174A32F81330632B09D8FB7976
:10047C00144A32F81320013291B2124A22F81310A6
:10048C000DE0FB79104A0121D15408E0FB790D4AAB
:10049C00002122F81310FB790B4A0021D154FB796F
:1004AC000133FB71FB79022B96D900BF00BF0C37CF
:1004BC00BD4690BD5C010020600100200008014099
:1004CC0058010020680100206401002080B483B032
:1004DC0000AF0346FB71FB79022B01D9002307E027
:1004EC00FB79064AD35C002B0CBF01230023DBB243
:1004FC0018460C37BD4680BC704700BF5801002021
:10050C0080B483B000AF0346FB71FB79022B01D999
:10051C00FF2307E0FB79064AD35C012B0CBF0123B8
:10052C000023DBB218460C37BD4680BC704700BFB9
:10053C006401002080B500AF01F0A6F800F028F8A7
:10054C0000F0AEF800F060F8104802F007F800F088
:10055C009FFD40F2F23000F03BFC0A2000F01EFC44
:10056C00FFF7F8FD00F088FC0346002B01D000F0EB
:10057C000DF900F075FC0346002BF1D000F094F956
:10058C004FF4FA7000F00AFCEAE700BF9401002077
:10059C0080B590B000AF07F118032822002118464F
:1005AC0002F094FB3B1D00221A605A609A60DA60DC
:1005BC001A610223BB610123BB621023FB6200237F
:1005CC007B6307F11803184601F090FB0346002BE0
:1005DC0001D000F0D5F80F237B600023BB60002313
:1005EC00FB6000233B6100237B613B1D002118460F
:1005FC0001F0FCFD0346002B01D000F0C1F800BF58
:10060C004037BD4680BD000080B586B000AF07F115
:10061C00080300221A605A609A60DA603B46002296
:10062C001A605A601D4B4FF080421A601B4B41F60A
:10063C003F725A60194B00229A60184B0922DA60FB
:10064C00164B00221A61154B00229A61134801F0D7
:10065C0035FF0346002B01D000F092F84FF4805385
:10066C00BB6007F1080319460C4802F0CBF80346AF
:10067C00002B01D000F084F800233B6000237B604A
:10068C003B461946054802F093FA0346002B01D06D
:10069C0000F076F800BF1837BD4680BD94010020ED
:1006AC0080B588B000AF07F1100300221A605A60C1
:1006BC009A60DA602F4B9B692E4A43F020039361BA
:1006CC002C4B9B6903F02003FB60FB68294B9B6957
:1006DC00284A43F004039361264B9B6903F00403FF
:1006EC00BB60BB68234B9B69224A43F008039361B0
:1006FC00204B9B6903F008037B607B6800224CF263
:10070C00FE711D4801F0C1FA00224FF6FF711B4823
:10071C0001F0BBFA4CF2FE733B6101237B610023B9
:10072C00BB610223FB6107F110031946124801F06B
:10073C001BF94FF6FF733B6101237B610023BB6107
:10074C000223FB6107F1100319460C4801F00CF968
:10075C004FF460533B6100237B610123BB6107F1C4
:10076C0010031946044801F0FFF800BF2037BD46BE
:10077C0080BD00BF0010024000080140000C014089
:10078C0080B400AF72B600BFFEE7000080B500AFCA
:10079C00FFF7D6FC0346013B032B00F2808001A23D
:1007AC0052F823F0C1070008D30700081B08000803
:1007BC006308000800F062FD00F0E6FD4FF47A706B
:1007CC0000F006FB6CE02021364801F076FA4FF47D
:1007DC008071344801F071FA01224021314801F056
:1007EC0054FA01224FF400712E4801F04EFA012206
:1007FC0080212C4801F049FA01224FF480612948EC
:10080C0001F043FA4FF4FA7000F0E2FA48E04021AC
:10081C00244801F052FA4FF40071224801F04DFACD
:10082C00012220211F4801F030FA01224FF480717F
:10083C001C4801F02AFA012280211A4801F025FAFD
:10084C0001224FF48061174801F01FFA4FF4FA703F
:10085C0000F0BEFA24E08021124801F02EFA4FF489
:10086C008061104801F029FA012220210D4801F085
:10087C000CFA01224FF480710A4801F006FA0122A9
:10088C004021084801F001FA01224FF4007105489B
:10089C0001F0FBF94FF4FA7000F09AFA00E000BF97
:1008AC0000BF80BD0008014080B500AFFFF748FCD9
:1008BC000346013B032B00F2DA8101A252F823F02C
:1008CC00DD080008C1090008A50A0008890B00080A
:1008DC00C64B1B78002B02D0012B30D0C8E1012273
:1008EC000421C34801F0D1F901221021C04801F0C4
:1008FC00CCF900F05BFE03461A46BE4BA3FB022369
:10090C00DB08DBB2184600F0D5FA00F05BFE0346BC
:10091C001A46B84BA3FB0223DB08DBB2184600F0E7
:10092C003DFB00220221B24801F0AFF90022082160
:10093C00AF4801F0AAF9AD4B01221A7039E001223F
:10094C000221AB4801F0A1F901220821A84801F0CD
:10095C009CF900F02BFE03461A46A64BA3FB021390
:10096C00D9080B469B000B445B00D31ADBB218462C
:10097C0000F0A0FA00F026FE03461A469D4BA3FB9E
:10098C000213D9080B469B000B445B00D31ADBB255
:10099C00184600F003FB00220421954801F075F97C
:1009AC0000221021924801F070F9904B00221A702D
:1009BC0000BF5DE18D4B1B78002B02D0012B30D09A
:1009CC0056E1012204218A4801F05FF9012210212D
:1009DC00874801F05AF900F001FE03461A46854B90
:1009EC00A3FB0223DB08DBB2184600F063FAFFF727
:1009FC00A7FB03461A467F4BA3FB0223DB08DBB2A3
:100A0C00184600F0CBFA00220221794801F03DF99A
:100A1C0000220821764801F038F9744B01221A7033
:100A2C0039E001220221724801F02FF9012208213C
:100A3C006F4801F02AF900F0D1FD03461A466D4BC0
:100A4C00A3FB0213D9080B469B000B445B00D31A83
:100A5C00DBB2184600F02EFAFFF772FB03461A467B
:100A6C00644BA3FB0213D9080B469B000B445B00A1
:100A7C00D31ADBB2184600F091FA002204215C482C
:100A8C0001F003F900221021594801F0FEF8574BF0
:100A9C0000221A7000BFEBE0544B1B78002B02D0E5
:100AAC00012B30D0E4E001220421514801F0EDF893
:100ABC00012210214E4801F0E8F800F09FFD03469A
:100ACC001A464C4BA3FB0223DB08DBB2184600F0A2
:100ADC00F1F9FFF735FB03461A46464BA3FB0223FD
:100AEC00DB08DBB2184600F059FA0022022140481C
:100AFC0001F0CBF8002208213D4801F0C6F83B4B31
:100B0C0001221A7039E001220221394801F0BDF8A6
:100B1C0001220821364801F0B8F800F06FFD0346B9
:100B2C001A46344BA3FB0213D9080B469B000B440B
:100B3C005B00D31ADBB2184600F0BCF9FFF700FBE0
:100B4C0003461A462B4BA3FB0213D9080B469B00FA
:100B5C000B445B00D31ADBB2184600F01FFA0022DC
:100B6C000421234801F091F800221021204801F0C3
:100B7C008CF81E4B00221A7000BF79E01B4B1B78BF
:100B8C00002B02D0012B37D072E00122042118482F
:100B9C0001F07BF801221021154801F076F800F0E5
:100BAC003DFD03461A46134BA3FB0223DB08DBB2C5
:100BBC00184600F07FF9FFF7C3FA03461A460D4BAF
:100BCC00A3FB0223DB08DBB2184600F0E7F9002296
:100BDC000221074801F059F800220821044801F0CD
:100BEC0054F8024B01221A7040E000BF6E01002045
:100BFC0000080140CDCCCCCC012202211D4801F0D3
:100C0C0044F8012208211B4801F03FF800F006FDD2
:100C1C0003461A46184BA3FB0213D9080B469B003C
:100C2C000B445B00D31ADBB2184600F043F9FFF714
:100C3C0087FA03461A46104BA3FB0213D9080B463E
:100C4C009B000B445B00D31ADBB2184600F0A6F9EC
:100C5C0000220421074801F018F800221021054851
:100C6C0001F013F8054B00221A7000BF00E000BF22
:100C7C0000BF80BD00080140CDCCCCCC6E01002063
:100C8C0080B485B000AF154B9B69144A43F0010347
:100C9C009361124B9B6903F00103BB60BB680F4B64
:100CAC00DB690E4A43F08053D3610C4BDB6903F0D4
:100CBC0080537B607B680A4B5B68FB60FB6823F0AE
:100CCC00E063FB60FB6843F08063FB60044AFB68F5
:100CDC00536000BF1437BD4680BC70470010024003
:100CEC000000014080B584B000AF78607B681B6861
:100CFC00B3F1804F13D10C4BDB690B4A43F001036A
:100D0C00D361094BDB6903F00103FB60FB68002234
:100D1C0000211C2000F0F1FD1C2000F00AFE00BF99
:100D2C001037BD4680BD00BF0010024080B400AF3C
:100D3C00FEE780B400AFFEE780B400AFFEE780B4FE
:100D4C0000AFFEE780B400AFFEE780B400AF00BF99
:100D5C00BD4680BC704780B400AF00BFBD4680BCB0
:100D6C00704780B400AF00BFBD4680BC704780B5F3
:100D7C0000AF00F0CFFC00BF80BD000080B500AF1D
:100D8C00024801F037FC00BF80BD00BF9401002079
:100D9C0080B400AF00BFBD4680BC704780B483B048
:100DAC0000AF7860074B1B687A6892FBF3F3064A36
:100DBC001360064B00221A6000BF0C37BD4680BC86
:100DCC00704700BF04000020700100207401002057
:100DDC0080B483B000AF7860074B1B687A6892FBD5
:100DEC00F3F3064A1360064B00221A6000BF0C375F
:100DFC00BD4680BC704700BF040000207801002075
:100E0C007C01002080B400AF114B1B68002B0BDD64
:100E1C000F4B1B68013B0E4A13600D4B1B68002BDC
:100E2C0002D10C4B01221A600B4B1B68002B0BDD03
:100E3C00094B1B68013B084A1360074B1B68002BCE
:100E4C0002D1064B01221A6000BFBD4680BC704720
:100E5C007001002074010020780100207C0100202A
:100E6C0080B400AF034B1B68DBB21846BD4680BC98
:100E7C00704700BF7401002080B400AF034B1B68A7
:100E8C00DBB21846BD4680BC704700BF7C01002019
:100E9C0080B582B000AF78607B681B68B3F1804F7F
:100EAC0003D1FFF7AFFFFFF791FA00BF0837BD463C
:100EBC0080BD000080B582B000AF786035497A689B
:100ECC001346DB009B1A9B000B441B68DBB21A46D3
:100EDC000121314800F0D9FE2E497A681346DB0017
:100EEC009B1A9B000B4404331B68DBB21A4602218D
:100EFC00294800F0CAFE27497A681346DB009B1A82
:100F0C009B000B4408331B68DBB21A4604212248B1
:100F1C0000F0BBFE1F497A681346DB009B1A9B004E
:100F2C000B440C331B68DBB21A4608211A4800F03C
:100F3C00ACFE18497A681346DB009B1A9B000B44E5
:100F4C0010331B68DBB21A461021134800F09DFECB
:100F5C0010497A681346DB009B1A9B000B44143330
:100F6C001B68DBB21A4620210B4800F08EFE0949A3
:100F7C007A681346DB009B1A9B000B4418331B68E2
:100F8C00DBB21A464021044800F07FFE00BF083750
:100F9C00BD4680BD18000020000C014080B582B019
:100FAC0000AF786038497A681346DB009B1A9B00C7
:100FBC000B441B68DBB21A468021344800F065FEF6
:100FCC0031497A681346DB009B1A9B000B440433AF
:100FDC001B68DBB21A464FF480712C4800F055FEAA
:100FEC0029497A681346DB009B1A9B000B44083393
:100FFC001B68DBB21A464FF40071244800F045FE22
:10100C0021497A681346DB009B1A9B000B440C3376
:10101C001B68DBB21A464FF480611C4800F035FEA9
:10102C0019497A681346DB009B1A9B000B4410335A
:10103C001B68DBB21A464FF40061144800F025FE21
:10104C0011497A681346DB009B1A9B000B4414333E
:10105C001B68DBB21A464FF480510C4800F015FEA9
:10106C0009497A681346DB009B1A9B000B44183322
:10107C001B68DBB21A464FF40051044800F005FE21
:10108C0000BF0837BD4680BD18000020000C014091
:10109C0080B500AF2B4B00221A702A4B00225A70DD
:1010AC00294B00221A70284B00225A70274B002221
:1010BC001A70264B00225A70254B05221A70254BAC
:1010CC0002221A70244B03221A70214B05225A70EB
:1010DC00204B02225A70204B03225A7001224021CD
:1010EC001E4800F0D2FD012280211C4800F0CDFDED
:1010FC0000222021194800F0C8FD01224FF4807114
:10110C00164800F0C2FD01224FF40071134800F0A4
:10111C00BCFD00224FF48061104800F0B6FD104B6E
:10112C0000221A700A4B1B781A460E4B1A600C4B95
:10113C0002225A70084B5B781A460A4B5A6000BF61
:10114C0080BD00BF880100208C0100209001002090
:10115C000C000020100000201400002000080140AA
:10116C00080000208001002080B500AF3A4B1A78AF
:10117C003A4B1B781344DAB2374B1A70384B1A7847
:10118C00384B1B781344DAB2354B1A70364B1A783D
:10119C00364B1B781344DAB2334B1A702E4B5A78F9
:1011AC002E4B5B781344DAB22B4B5A702C4B5A787B
:1011BC002C4B5B781344DAB2294B5A702A4B5A7871
:1011CC002A4B5B781344DAB2274B5A700122402128
:1011DC00274800F05AFD01228021254800F055FDDA
:1011EC0000222021224800F050FD01224FF4807192
:1011FC001F4800F04AFD01224FF400711C4800F01A
:10120C0044FD00224FF48061194800F03EFD194B5B
:10121C0000221A70104B1B781A46174B1A60154B8C
:10122C0002225A70104B5B781A46134B5A600B4BC8
:10123C0000221A700B4B00221A700C4B00221A70F1
:10124C00064B00225A70074B00225A70074B0022A3
:10125C005A7000BF80BD00BF0C0000208801002028
:10126C00100000208C0100201400002090010020B0
:10127C0000080140080000208001002080B500AF6C
:10128C003B4B1B78022B27D0022B67DC002B02D0A8
:10129C00012B42D062E0374B1B68013B354A13608F
:1012AC00344B1B68002B5BD1334B1B781A46314BEC
:1012BC001A602F4B02221A70012220212F4800F0B5
:1012CC00E4FC012240212D4800F0DFFC00228021AB
:1012DC002A4800F0DAFC43E0264B1B68013B254A08
:1012EC001360244B1B68002B3CD1254B1B781A46F2
:1012FC00204B1A601E4B01221A70012220211F481C
:10130C0000F0C3FC012280211C4800F0BEFC00222E
:10131C0040211A4800F0B9FC24E0164B1B68013B35
:10132C00144A1360134B1B68002B1DD1154B1B78F3
:10133C001A46104B1A600E4B00221A7001224021E3
:10134C000E4800F0A2FC012280210C4800F09DFC0C
:10135C0000222021094800F098FC05E000BF04E0C1
:10136C0000BF02E000BF00E000BF00BF80BD00BFB7
:10137C00080000208001002014000020000801401B
:10138C00100000200C00002080B500AF3F4B5B78B4
:10139C00022B2AD0022B70DC002B02D0012B48D060
:1013AC006BE03B4B5B68013B394A5360384B5B68E5
:1013BC00002B64D1374B5B781A46354B5A60334B54
:1013CC0002225A7001224FF48071334800F05DFC08
:1013DC0001224FF40071304800F057FC00224FF40A
:1013EC0080612D4800F051FC49E0294B5B68013BC2
:1013FC00274A5360264B5B68002B42D1274B5B7806
:10140C001A46234B5A60214B01225A7001224FF489
:10141C008071214800F039FC01224FF480611E4894
:10142C0000F033FC00224FF400711B4800F02DFC3F
:10143C0027E0174B5B68013B154A5360144B5B6804
:10144C00002B20D1114B00225A70154B5B781A4699
:10145C000F4B5A6001224FF400710F4800F015FC3D
:10146C0001224FF480610C4800F00FFC00224FF475
:10147C008071094800F009FC05E000BF04E000BFE2
:10148C0002E000BF00E000BF00BF80BD08000020EC
:10149C0080010020140000200008014010000020F2
:1014AC000C00002080B400AF0C4B1B781A460C4B80
:1014BC001B781344632B0CDC094B1B780133DAB219
:1014CC00074B1A70074B5B780133DAB2054B5A7035
:1014DC0000E000BFBD4680BC704700BF0C00002080
:1014EC00880100209001002080B400AF0C4B1B78C9
:1014FC001A460C4B1B781344632B0CDC094B1B78E2
:10150C000133DAB2074B1A70074B5B780133DAB24E
:10151C00054B5A7000E000BFBD4680BC704700BF51
:10152C00100000208C0100208801002080B400AF46
:10153C000C4B1B781A460C4B1B781344632B0CDC9E
:10154C00094B1B780133DAB2074B1A70074B5B78E7
:10155C000133DAB2054B5A7000E000BFBD4680BCC7
:10156C00704700BF1400002090010020880100206B
:10157C0080B400AF0A4B00221A700A4B00221A707A
:10158C00094B00221A70064B00225A70054B0022A0
:10159C005A70054B00225A7000BFBD4680BC704784
:1015AC00880100208C0100209001002080B400AF45
:1015BC00034B1B68DBB21846BD4680BC704700BFAE
:1015CC008001002080B400AF034B5B68DBB218468F
:1015DC00BD4680BC704700BF8001002080B400AFC6
:1015EC00044B1A78044B1B781344DBB21846BD46E7
:1015FC0080BC70470C0000208801002080B400AF34
:10160C00044B1A78044B1B781344DBB21846BD46C6
:10161C0080BC7047100000208C01002080B400AF0B
:10162C00044B1A78044B1B781344DBB21846BD46A6
:10163C0080BC704714000020900100200C480D491C
:10164C000D4A002302E0D458C4500433C4188C4211
:10165C00F9D30A4A0A4C002301E013600432A24277
:10166C00FBD3FFF795FB01F00DFBFEF763FF704713
:10167C000000002038010020282D0008380100202F
:10168C00E0010020FEE7000080B500AF084B1B68AE
:10169C00074A43F010031360032000F023F90F20D6
:1016AC0000F008F8FFF7ECFA0023184680BD00BFE5
:1016BC000020024080B582B000AF7860124B1A68EF
:1016CC00124B1B7819464FF47A73B3FBF1F3B2FB50
:1016DC00F3F3184600F03BF90346002B01D001232D
:1016EC000EE07B680F2B0AD8002279684FF0FF3090
:1016FC0000F003F9064A7B681360002300E0012325
:10170C0018460837BD4680BD00000020340100207B
:10171C003001002080B400AF054B1B781A46054BF6
:10172C001B681344034A136000BFBD4680BC70475E
:10173C0034010020DC01002080B400AF024B1B6898
:10174C001846BD4680BC7047DC01002080B485B0D3
:10175C0000AF78607B6803F00703FB600C4BDB6821
:10176C00BB60BA684FF6FF031340BB60FB681A02FC
:10177C00BB68134343F0BF6343F40033BB60044ABC
:10178C00BB68D36000BF1437BD4680BC704700BF38
:10179C0000ED00E080B400AF044BDB681B0A03F0E3
:1017AC0007031846BD4680BC704700BF00ED00E043
:1017BC0080B483B000AF0346FB7197F90730002B60
:1017CC000BDBFB7903F01F02064997F907305B0925
:1017DC00012000FA02F241F8232000BF0C37BD466D
:1017EC0080BC704700E100E080B483B000AF0346DA
:1017FC003960FB7197F90730002B0ADB3B68DAB2D2
:10180C000C4997F907301201D2B20B4483F800232C
:10181C000AE03B68DAB20849FB7903F00F03043B9A
:10182C001201D2B20B441A7600BF0C37BD4680BCF5
:10183C00704700BF00E100E000ED00E080B489B02B
:10184C0000AFF860B9607A60FB6803F00703FB61D6
:10185C00FB69C3F10703042B28BF0423BB61FB699D
:10186C000433062B02D9FB69033B00E000237B61A8
:10187C004FF0FF32BB6902FA03F3DA43BB681A403C
:10188C007B699A404FF0FF317B6901FA03F3D9432E
:10189C007B680B40134318462437BD4680BC704709
:1018AC0080B582B000AF78607B68013BB3F1807F7C
:1018BC0001D301230FE00A4A7B68013B53600F21DF
:1018CC004FF0FF30FFF790FF054B00229A60044B5E
:1018DC0007221A60002318460837BD4680BD00BF9A
:1018EC0010E000E080B582B000AF78607868FFF758
:1018FC002DFF00BF0837BD4680BD80B586B000AF58
:10190C000346B9607A60FB7300237B61FFF742FFEB
:10191C0078617A68B9687869FFF790FF024697F9A1
:10192C000F3011461846FFF75FFF00BF1837BD4652
:10193C0080BD80B582B000AF0346FB7197F90730CC
:10194C001846FFF735FF00BF0837BD4680BD80B590
:10195C0082B000AF78607868FFF7A2FF03461846A4
:10196C000837BD4680BD000080B48BB000AF7860F6
:10197C00396000237B6200233B6248E101227B6AD1
:10198C0002FA03F3FB613B681B68FA691340BB6105
:10199C00BA69FB699A4240F037813B685B68A34A9D
:1019AC0093425ED0A14A934275D8A14A934258D033
:1019BC009F4A93426FD89F4A934252D09D4A93427A
:1019CC0069D89D4A93424CD09B4A934263D89B4A18
:1019DC00934246D0994A93425DD8122B2AD8122BA7
:1019EC0059D801A252F823F06F1A0008491A0008BE
:1019FC005B1A00089D1A0008A31A0008A31A000815
:101A0C00A31A0008A31A0008A31A0008A31A0008B6
:101A1C00A31A0008A31A0008A31A0008A31A0008A6
:101A2C00A31A0008A31A0008A31A0008511A0008E8
:101A3C00651A0008824A934213D02CE03B68DB689D
:101A4C003B6229E03B68DB6804333B6224E03B6883
:101A5C00DB6808333B621FE03B68DB680C333B629E
:101A6C001AE03B689B68002B02D104233B6213E015
:101A7C003B689B68012B05D108233B627B68FA69A4
:101A8C001A6109E008233B627B68FA695A6103E03A
:101A9C0000233B6200E000BFBB69FF2B01D87B68D1
:101AAC0001E07B6804337B61BB69FF2B02D87B6A46
:101ABC009B0002E07B6A083B9B003B617B691A68D8
:101ACC000F213B6901FA03F3DB431A40396A3B6986
:101ADC0001FA03F31A437B691A603B685B6803F0F5
:101AEC008053002B00F09080564B9B69554A43F075
:101AFC0001039361534B9B6903F00103BB60BB680B
:101B0C00514A7B6A9B08023352F82330FB607B6A94
:101B1C0003F003039B000F2202FA03F3DB43FA6882
:101B2C001340FB607B68494A93420DD07B68484A5E
:101B3C00934207D07B68474A934201D1022304E0C9
:101B4C00032302E0012300E000237A6A02F003027F
:101B5C0092009340FA681343FB603B497B6A9B08F5
:101B6C000233FA6841F823203B685B6803F4803346
:101B7C00002B06D0384B1A683749BB6913430B60EE
:101B8C0006E0354B1A68BB69DB43334913400B60E5
:101B9C003B685B6803F40033002B06D02E4B5A686D
:101BAC002D49BB6913434B6006E02B4B5A68BB694C
:101BBC00DB43294913404B603B685B6803F480139B
:101BCC00002B06D0244B9A682349BB6913438B60C6
:101BDC0006E0214B9A68BB69DB431F4913408B60BD
:101BEC003B685B6803F40013002B06D01A4BDA68D1
:101BFC001949BB691343CB6006E0174BDA68BB6924
:101C0C00DB4315491340CB607B6A01337B623B6835
:101C1C001A687B6A22FA03F3002B7FF4AFAE00BF85
:101C2C0000BF2C37BD4680BC704700BF000032108F
:101C3C0000003110000022100000211000001210D2
:101C4C00000011100010024000000140000801408B
:101C5C00000C0140001001400004014080B485B02C
:101C6C0000AF78600B467B807B689A687B8813405A
:101C7C00002B02D00123FB7301E00023FB73FB7BE1
:101C8C0018461437BD4680BC704780B483B000AF93
:101C9C0078600B467B8013467B707B78002B03D0DF
:101CAC007A887B681A6103E07B881A047B681A6166
:101CBC0000BF0C37BD4680BC704780B485B000AF08
:101CCC0078600B467B807B68DB68FB607A88FB68FE
:101CDC0013401A04FB68D9437B880B401A437B687A
:101CEC001A6100BF1437BD4680BC704780B586B002
:101CFC0000AF78607B68002B01D101236CE27B681C
:101D0C001B6803F00103002B00F08780924B5B688B
:101D1C0003F00C03042B0CD08F4B5B6803F00C030B
:101D2C00082B12D18C4B5B6803F48033B3F5803FE6
:101D3C000BD1894B1B6803F40033002B6CD07B68F0
:101D4C005B68002B68D1012346E27B685B68B3F5C6
:101D5C00803F06D1804B1B687F4A43F4803313606D
:101D6C002EE07B685B68002B0CD17B4B1B687A4A9E
:101D7C0023F480331360784B1B68774A23F4802359
:101D8C0013601DE07B685B68B3F5A02F0CD1724B20
:101D9C001B68714A43F4802313606F4B1B686E4AB7
:101DAC0043F4803313600BE06B4B1B686A4A23F4DB
:101DBC0080331360684B1B68674A23F480231360DD
:101DCC007B685B68002B13D0FFF7B6FC386108E02A
:101DDC00FFF7B2FC02463B69D31A642B01D90323EB
:101DEC00FAE15D4B1B6803F40033002BF0D014E0D8
:101DFC00FFF7A2FC386108E0FFF79EFC02463B6946
:101E0C00D31A642B01D90323E6E1534B1B6803F46B
:101E1C000033002BF0D100E000BF7B681B6803F09F
:101E2C000203002B63D04C4B5B6803F00C03002BBC
:101E3C000BD0494B5B6803F00C03082B1CD1464BB1
:101E4C005B6803F48033002B16D1434B1B6803F003
:101E5C000203002B05D07B681B69012B01D00123E9
:101E6C00BAE13D4B1B6823F0F8027B685B69DB0031
:101E7C00394913430B603AE07B681B69002B20D077
:101E8C00364B01221A60FFF757FC386108E0FFF768
:101E9C0053FC02463B69D31A022B01D903239BE165
:101EAC002D4B1B6803F00203002BF0D02A4B1B6850
:101EBC0023F0F8027B685B69DB00274913430B6056
:101ECC0015E0264B00221A60FFF736FC386108E05B
:101EDC00FFF732FC02463B69D31A022B01D90323CC
:101EEC007AE11D4B1B6803F00203002BF0D17B68D9
:101EFC001B6803F00803002B3AD07B689B69002B0E
:101F0C0019D0174B01221A60FFF716FC386108E054
:101F1C00FFF712FC02463B69D31A022B01D90323AB
:101F2C005AE10D4B5B6A03F00203002BF0D0012049
:101F3C0000F0A6FA1CE00A4B00221A60FFF7FCFB2B
:101F4C0038610FE0FFF7F8FB02463B69D31A022B0E
:101F5C0008D9032340E100BF0010024000004242B8
:101F6C00800442429E4B5B6A03F00203002BE9D1D2
:101F7C007B681B6803F00403002B00F0A680002391
:101F8C00FB75974BDB6903F08053002B0DD1944B01
:101F9C00DB69934A43F08053D361914BDB6903F0C7
:101FAC008053BB60BB680123FB758E4B1B6803F42D
:101FBC008073002B18D18B4B1B688A4A43F48073B7
:101FCC001360FFF7B9FB386108E0FFF7B5FB024679
:101FDC003B69D31A642B01D90323FDE0814B1B68A9
:101FEC0003F48073002BF0D07B68DB68012B06D1E7
:101FFC007B4B1B6A7A4A43F0010313622DE07B682A
:10200C00DB68002B0CD1764B1B6A754A23F001035D
:10201C001362734B1B6A724A23F0040313621CE0B5
:10202C007B68DB68052B0CD16D4B1B6A6C4A43F04B
:10203C00040313626A4B1B6A694A43F0010313627F
:10204C000BE0674B1B6A664A23F001031362644B77
:10205C001B6A634A23F0040313627B68DB68002B62
:10206C0015D0FFF769FB38610AE0FFF765FB024604
:10207C003B69D31A41F28832934201D90323ABE076
:10208C00574B1B6A03F00203002BEED014E0FFF752
:10209C0053FB38610AE0FFF74FFB02463B69D31A4A
:1020AC0041F28832934201D9032395E04C4B1B6AD1
:1020BC0003F00203002BEED1FB7D012B05D1484B25
:1020CC00DB69474A23F08053D3617B68DB69002BC3
:1020DC0000F08180424B5B6803F00C03082B61D04D
:1020EC007B68DB69022B46D13F4B00221A60FFF75D
:1020FC0023FB386108E0FFF71FFB02463B69D31A4C
:10210C00022B01D9032367E0354B1B6803F00073E6
:10211C00002BF0D17B681B6AB3F5803F08D1304BA4
:10212C005B6823F400327B689B682D4913434B603A
:10213C002B4B5B6823F474127B68196A7B685B6AAF
:10214C000B43274913434B60274B01221A60FFF7BF
:10215C00F3FA386108E0FFF7EFFA02463B69D31A4D
:10216C00022B01D9032337E01D4B1B6803F00073CE
:10217C00002BF0D02FE01C4B00221A60FFF7DCFA8A
:10218C00386108E0FFF7D8FA02463B69D31A022BF4
:10219C0001D9032320E0124B1B6803F00073002BC2
:1021AC00F0D118E07B68DB69012B01D1012313E02E
:1021BC000B4B5B68FB60FB6803F480327B681B6A2B
:1021CC009A4206D1FB6803F470127B685B6A9A42F0
:1021DC0001D0012300E0002318461837BD4680BD0E
:1021EC0000100240007000406000424280B584B094
:1021FC0000AF786039607B68002B01D10123D0E0FF
:10220C006A4B1B6803F007033A689A4210D9674B74
:10221C001B6823F0070265493B6813430B60634B53
:10222C001B6803F007033A689A4201D00123B8E017
:10223C007B681B6803F00203002B20D07B681B68B3
:10224C0003F00403002B05D0594B5B68584A43F448
:10225C00E06353607B681B6803F00803002B05D018
:10226C00534B5B68524A43F460535360504B5B686A
:10227C0023F0F0027B689B684D4913434B607B68ED
:10228C001B6803F00103002B40D07B685B68012BBB
:10229C0007D1474B1B6803F40033002B15D10123E6
:1022AC007FE07B685B68022B07D1414B1B6803F016
:1022BC000073002B09D1012373E03D4B1B6803F025
:1022CC000203002B01D101236BE0394B5B6823F037
:1022DC0003027B685B68364913434B60FFF72CFAAB
:1022EC00F8600AE0FFF728FA0246FB68D31A41F2BD
:1022FC008832934201D9032353E02D4B5B6803F0E2
:10230C000C027B685B689B009A42EBD1274B1B68E5
:10231C0003F007033A689A4210D2244B1B6823F04F
:10232C00070222493B6813430B60204B1B6803F0E8
:10233C0007033A689A4201D0012332E07B681B689C
:10234C0003F00403002B08D0194B5B6823F4E06204
:10235C007B68DB68164913434B607B681B6803F092
:10236C000803002B09D0124B5B6823F460527B6886
:10237C001B69DB000E4913434B6000F021F8024649
:10238C000B4B5B681B0903F00F030A49CB5C22FA69
:10239C0003F3094A1360094B1B681846FFF78AF9C7
:1023AC00002318461037BD4680BD00BF00200240F8
:1023BC0000100240102D0008000000203001002009
:1023CC0090B48AB000AF2A4B3C1D0FCB84E80F00B1
:1023DC0040F201233B800023FB610023BB610023FF
:1023EC007B6200237B6100233B62224B5B68FB61B9
:1023FC00FB6903F00C03042B02D0082B03D02DE057
:10240C001D4B3B622DE0FB699B0C03F00F0307F1A6
:10241C002802134413F8243C7B61FB6903F48033DA
:10242C00002B13D0134B5B685B0C03F0010307F11B
:10243C002802134413F8283CBB617B690E4A02FB4B
:10244C0003F2BB69B2FBF3F37B6204E07B690B4ADA
:10245C0002FB03F37B627B6A3B6202E0064B3B624E
:10246C0000BF3B6A18462837BD4690BC704700BF7A
:10247C00002D00080010024000127A0000093D00F7
:10248C0080B485B000AF78600A4B1B680A4AA2FB87
:10249C0003235B0A7A6802FB03F3FB6000BFFB6853
:1024AC005A1EFA60002BF9D100BF00BF1437BD468D
:1024BC0080BC704700000020D34D621080B582B004
:1024CC0000AF78607B68002B01D1012341E07B6871
:1024DC0093F83D30DBB2002B06D17B68002283F8E9
:1024EC003C207868FEF7FEFB7B68022283F83D20D7
:1024FC007B681A687B6804331946104600F06AFA48
:10250C007B68012283F846207B68012283F83E20F9
:10251C007B68012283F83F207B68012283F84020EE
:10252C007B68012283F841207B68012283F84220DA
:10253C007B68012283F843207B68012283F84420C6
:10254C007B68012283F845207B68012283F83D20BB
:10255C00002318460837BD4680BD000080B485B006
:10256C0000AF78607B6893F83D30DBB2012B01D073
:10257C00012335E07B68022283F83D207B681B68D1
:10258C00DA687B681B6842F00102DA607B681B68C2
:10259C00164A934209D07B681B68B3F1804F04D074
:1025AC007B681B68124A934211D17B681B689B683D
:1025BC0003F00703FB60FB68062B10D07B681B68DD
:1025CC001A687B681B6842F001021A6007E07B689E
:1025DC001B681A687B681B6842F001021A600023B2
:1025EC0018461437BD4680BC704700BF002C014014
:1025FC000004004080B582B000AF78607B681B6837
:10260C001B6903F00203022B22D17B681B68DB6879
:10261C0003F00203022B1BD17B681B686FF00202D4
:10262C001A617B6801221A777B681B689B6903F02F
:10263C000303002B03D0786800F0B1F905E078684B
:10264C0000F0A4F9786800F0B3F97B6800221A77DF
:10265C007B681B681B6903F00403042B22D17B6885
:10266C001B68DB6803F00403042B1BD17B681B681D
:10267C006FF004021A617B6802221A777B681B6870
:10268C009B6903F44073002B03D0786800F087F942
:10269C0005E0786800F07AF9786800F089F97B68D1
:1026AC0000221A777B681B681B6903F00803082B50
:1026BC0022D17B681B68DB6803F00803082B1BD155
:1026CC007B681B686FF008021A617B6804221A771A
:1026DC007B681B68DB6903F00303002B03D078686D
:1026EC0000F05DF905E0786800F050F9786800F0CA
:1026FC005FF97B6800221A777B681B681B6903F003
:10270C001003102B22D17B681B68DB6803F01003CD
:10271C00102B1BD17B681B686FF010021A617B6851
:10272C0008221A777B681B68DB6903F44073002B63
:10273C0003D0786800F033F905E0786800F026F9EA
:10274C00786800F035F97B6800221A777B681B6883
:10275C001B6903F00103012B0ED17B681B68DB683E
:10276C0003F00103012B07D17B681B686FF001029A
:10277C001A617868FEF78CFB7B681B681B6903F099
:10278C008003802B0ED17B681B68DB6803F0800311
:10279C00802B07D17B681B686FF080021A61786808
:1027AC0000F067FA7B681B681B6903F04003402B41
:1027BC000ED17B681B68DB6803F04003402B07D10C
:1027CC007B681B686FF040021A61786800F0F9F8BA
:1027DC007B681B681B6903F02003202B0ED17B68E0
:1027EC001B68DB6803F02003202B07D17B681B6878
:1027FC006FF020021A61786800F032FA00BF0837D7
:10280C00BD4680BD80B584B000AF786039607B6810
:10281C0093F83C30012B01D10223B3E07B680122F9
:10282C0083F83C207B68022283F83D207B681B6880
:10283C009B68FB60FB6823F07703FB60FB6823F469
:10284C007F43FB607B681B68FA689A603B681B6877
:10285C00B3F5005F3ED0B3F5005F00F28780B3F5AF
:10286C00805F00F08580B3F5805F7FD8702B1AD025
:10287C00702B7BD8602B50D0602B77D8502B3CD052
:10288C00502B73D8402B58D0402B6FD8302B64D0A2
:10289C00302B6BD8202B60D0202B67D8002B5CD032
:1028AC00102B5AD062E07B6818683B6899683B68CB
:1028BC005A683B68DB6800F05CF97B681B689B68B6
:1028CC00FB60FB6843F07703FB607B681B68FA686E
:1028DC009A604EE07B6818683B6899683B685A6858
:1028EC003B68DB6800F045F97B681B689A687B687D
:1028FC001B6842F480429A603BE07B6818683B6836
:10290C0059683B68DB681A4600F0BCF87B681B68AA
:10291C005021184600F013F92BE07B6818683B68CF
:10292C0059683B68DB681A4600F0DAF87B681B686C
:10293C006021184600F003F91BE07B6818683B68BF
:10294C0059683B68DB681A4600F09CF87B681B688A
:10295C004021184600F0F3F80BE07B681A683B68DE
:10296C001B681946104600F0EAF802E000BF00E0D0
:10297C0000BF7B68012283F83D207B68002283F82E
:10298C003C20002318461037BD4680BD80B483B070
:10299C0000AF786000BF0C37BD4680BC704780B478
:1029AC0083B000AF786000BF0C37BD4680BC704769
:1029BC0080B483B000AF786000BF0C37BD4680BCDC
:1029CC00704780B483B000AF786000BF0C37BD4651
:1029DC0080BC704780B485B000AF786039607B688C
:1029EC001B68FB607B68254A934207D07B68B3F178
:1029FC00804F03D07B68224A934208D1FB6823F0B6
:102A0C007003FB603B685B68FA681343FB607B6890
:102A1C001A4A934207D07B68B3F1804F03D07B688E
:102A2C00174A934208D1FB6823F44073FB603B6860
:102A3C00DB68FA681343FB60FB6823F080023B6899
:102A4C005B691343FB607B68FA681A603B689A68A1
:102A5C007B68DA623B681A687B689A627B68074A13
:102A6C00934203D13B681A697B681A637B68012225
:102A7C005A6100BF1437BD4680BC7047002C014022
:102A8C000004004080B487B000AFF860B9607A6091
:102A9C00FB681B6A7B61FB681B6A23F00102FB6805
:102AAC001A62FB689B693B613B6923F0F0033B6155
:102ABC007B681B013A6913433B617B6923F00A0372
:102ACC007B617A69BB6813437B61FB683A699A61E5
:102ADC00FB687A691A6200BF1C37BD4680BC704720
:102AEC0080B487B000AFF860B9607A60FB681B6A8D
:102AFC0023F01002FB681A62FB689B697B61FB6820
:102B0C001B6A3B617B6923F470437B617B681B030D
:102B1C007A6913437B613B6923F0A0033B61BB687B
:102B2C001B013A6913433B61FB687A699A61FB6844
:102B3C003A691A6200BF1C37BD4680BC704780B42E
:102B4C0085B000AF786039607B689B68FB60FB6880
:102B5C0023F07003FB603A68FB68134343F00703F0
:102B6C00FB607B68FA689A6000BF1437BD4680BC76
:102B7C00704780B487B000AFF860B9607A603B6092
:102B8C00FB689B687B617B6923F47F437B613B68BB
:102B9C001A027B681A43BB6813437A6913437B613F
:102BAC00FB687A699A6000BF1C37BD4680BC7047D1
:102BBC0080B485B000AF786039607B6893F83C30A6
:102BCC00012B01D1022341E07B68012283F83C20D8
:102BDC007B68022283F83D207B681B685B68FB6086
:102BEC007B681B689B68BB60FB6823F07003FB6011
:102BFC003B681B68FA681343FB607B681B68FA68C8
:102C0C005A607B681B68144A934209D07B681B6826
:102C1C00B3F1804F04D07B681B68104A93420CD1EF
:102C2C00BB6823F08003BB603B685B68BA681343E6
:102C3C00BB607B681B68BA689A607B68012283F86A
:102C4C003D207B68002283F83C2000231846143773
:102C5C00BD4680BC704700BF002C01400004004002
:102C6C0080B483B000AF786000BF0C37BD4680BC29
:102C7C00704780B483B000AF786000BF0C37BD469E
:102C8C0080BC704770B500260C4D0D4C641BA41015
:102C9C00A64209D100F022F800260A4D0A4C641B0A
:102CAC00A410A64205D170BD55F8043B98470136D7
:102CBC00EEE755F8043B98470136F2E7202D000863
:102CCC00202D0008202D0008242D00080346024466
:102CDC00934200D1704703F8011BF9E7F8B500BF28
:102CEC00F8BC08BC9E467047F8B500BFF8BC08BCE1
:042CFC009E46704739
:102D000002030405060708090A0B0C0D0E0F10102C
:102D1000000000000000000001020304060708098B
:042D20003101000875
:042D24000D01000895
:102D28000024F4000A00000000020000050500006D
:102D38000202000003030000000000000000000081
:102D4800000000000000000000000000000000007B
:102D58000100000001000000000000000000000069
:102D68000100000001000000010000000100000057
:102D7800000000000000000001000000000000004A
:102D8800000000000100000000000000000000003A
:102D9800000000000000000000000000010000002A
:102DA8000100000000000000010000000000000019
:102DB8000000000001000000010000000000000009
:102DC80000000000000000000100000000000000FA
:102DD80000000000010000000000000000000000EA
:102DE80000000000010000000000000000000000DA
:102DF80000000000000000000000000000000000CB
:102E080000000000000000000100000001000000B8
:102E180001000000010000000000000000000000A8
:102E2800000000000000000000000000000000009A
:102E3800000000000000000000000000000000008A
:102E48000000000001000000000000000000000079
:082E5800100000000100000061
:040000050800164990
:00000001FF
